{
  "address": "0x8F7d068BfbbDF697E95A591C17723c16639Cf24e",
  "abi": [
    {
      "inputs": [
        {
          "internalType": "uint256",
          "name": "_inititialSupply",
          "type": "uint256"
        }
      ],
      "stateMutability": "nonpayable",
      "type": "constructor"
    },
    {
      "inputs": [],
      "name": "balance",
      "outputs": [
        {
          "internalType": "uint256",
          "name": "",
          "type": "uint256"
        }
      ],
      "stateMutability": "view",
      "type": "function"
    },
    {
      "inputs": [
        {
          "internalType": "uint256",
          "name": "n",
          "type": "uint256"
        }
      ],
      "name": "getPerson",
      "outputs": [
        {
          "components": [
            {
              "internalType": "uint256",
              "name": "_id",
              "type": "uint256"
            },
            {
              "internalType": "string",
              "name": "_name",
              "type": "string"
            },
            {
              "internalType": "uint8",
              "name": "_age",
              "type": "uint8"
            },
            {
              "internalType": "address payable",
              "name": "_wallet",
              "type": "address"
            }
          ],
          "internalType": "struct test.Person",
          "name": "",
          "type": "tuple"
        }
      ],
      "stateMutability": "view",
      "type": "function"
    },
    {
      "inputs": [],
      "name": "i_initialSupply",
      "outputs": [
        {
          "internalType": "uint256",
          "name": "",
          "type": "uint256"
        }
      ],
      "stateMutability": "view",
      "type": "function"
    },
    {
      "inputs": [],
      "name": "mint",
      "outputs": [],
      "stateMutability": "payable",
      "type": "function"
    },
    {
      "inputs": [
        {
          "internalType": "string",
          "name": "_name",
          "type": "string"
        },
        {
          "internalType": "uint8",
          "name": "_age",
          "type": "uint8"
        }
      ],
      "name": "newPerson",
      "outputs": [],
      "stateMutability": "nonpayable",
      "type": "function"
    },
    {
      "inputs": [],
      "name": "owner",
      "outputs": [
        {
          "internalType": "address",
          "name": "",
          "type": "address"
        }
      ],
      "stateMutability": "view",
      "type": "function"
    }
  ],
  "transactionHash": "0x029ba013da1428531702e1a3125b624d76573f85acbefab08c6c56baf902343c",
  "args": [
    25
  ],
  "numDeployments": 1,
  "solcInputHash": "d949b3358e37d059a2af45008a779078",
  "bytecode": "0x60806040523480156200001157600080fd5b5060405162001166380380620011668339818101604052810190620000379190620001e7565b336000806101000a81548173ffffffffffffffffffffffffffffffffffffffff021916908373ffffffffffffffffffffffffffffffffffffffff1602179055508060018190555060006002819055506000600381905550604051806080016040528060035481526020016040518060400160405280600481526020017f526f7373000000000000000000000000000000000000000000000000000000008152508152602001602060ff1681526020013373ffffffffffffffffffffffffffffffffffffffff168152506004600080815260200190815260200160002060008201518160000155602082015181600101908162000134919062000489565b5060408201518160020160006101000a81548160ff021916908360ff16021790555060608201518160020160016101000a81548173ffffffffffffffffffffffffffffffffffffffff021916908373ffffffffffffffffffffffffffffffffffffffff1602179055509050505062000570565b600080fd5b6000819050919050565b620001c181620001ac565b8114620001cd57600080fd5b50565b600081519050620001e181620001b6565b92915050565b6000602082840312156200020057620001ff620001a7565b5b60006200021084828501620001d0565b91505092915050565b600081519050919050565b7f4e487b7100000000000000000000000000000000000000000000000000000000600052604160045260246000fd5b7f4e487b7100000000000000000000000000000000000000000000000000000000600052602260045260246000fd5b600060028204905060018216806200029b57607f821691505b602082108103620002b157620002b062000253565b5b50919050565b60008190508160005260206000209050919050565b60006020601f8301049050919050565b600082821b905092915050565b6000600883026200031b7fffffffffffffffffffffffffffffffffffffffffffffffffffffffffffffffff82620002dc565b620003278683620002dc565b95508019841693508086168417925050509392505050565b6000819050919050565b60006200036a620003646200035e84620001ac565b6200033f565b620001ac565b9050919050565b6000819050919050565b620003868362000349565b6200039e620003958262000371565b848454620002e9565b825550505050565b600090565b620003b5620003a6565b620003c28184846200037b565b505050565b5b81811015620003ea57620003de600082620003ab565b600181019050620003c8565b5050565b601f82111562000439576200040381620002b7565b6200040e84620002cc565b810160208510156200041e578190505b620004366200042d85620002cc565b830182620003c7565b50505b505050565b600082821c905092915050565b60006200045e600019846008026200043e565b1980831691505092915050565b60006200047983836200044b565b9150826002028217905092915050565b620004948262000219565b67ffffffffffffffff811115620004b057620004af62000224565b5b620004bc825462000282565b620004c9828285620003ee565b600060209050601f831160018114620005015760008415620004ec578287015190505b620004f885826200046b565b86555062000568565b601f1984166200051186620002b7565b60005b828110156200053b5784890151825560018201915060208501945060208101905062000514565b868310156200055b578489015162000557601f8916826200044b565b8355505b6001600288020188555050505b505050505050565b610be680620005806000396000f3fe6080604052600436106100555760003560e01c80631249c58b1461005a578063246982c4146100645780635332a4d9146100a15780638da5cb5b146100ca578063b69ef8a8146100f5578063f46ca1be14610120575b600080fd5b61006261014b565b005b34801561007057600080fd5b5061008b60048036038101906100869190610456565b610167565b60405161009891906105e2565b60405180910390f35b3480156100ad57600080fd5b506100c860048036038101906100c39190610765565b6102a3565b005b3480156100d657600080fd5b506100df61039b565b6040516100ec91906107e2565b60405180910390f35b34801561010157600080fd5b5061010a6103bf565b604051610117919061080c565b60405180910390f35b34801561012c57600080fd5b506101356103c5565b604051610142919061080c565b60405180910390f35b60016002600082825461015e9190610856565b92505081905550565b61016f6103cb565b60046000838152602001908152602001600020604051806080016040529081600082015481526020016001820180546101a7906108b9565b80601f01602080910402602001604051908101604052809291908181526020018280546101d3906108b9565b80156102205780601f106101f557610100808354040283529160200191610220565b820191906000526020600020905b81548152906001019060200180831161020357829003601f168201915b505050505081526020016002820160009054906101000a900460ff1660ff1660ff1681526020016002820160019054906101000a900473ffffffffffffffffffffffffffffffffffffffff1673ffffffffffffffffffffffffffffffffffffffff1673ffffffffffffffffffffffffffffffffffffffff16815250509050919050565b600360008154809291906102b6906108ea565b9190505550604051806080016040528060035481526020018381526020018260ff1681526020013373ffffffffffffffffffffffffffffffffffffffff1681525060046000600354815260200190815260200160002060008201518160000155602082015181600101908161032b9190610ade565b5060408201518160020160006101000a81548160ff021916908360ff16021790555060608201518160020160016101000a81548173ffffffffffffffffffffffffffffffffffffffff021916908373ffffffffffffffffffffffffffffffffffffffff1602179055509050505050565b60008054906101000a900473ffffffffffffffffffffffffffffffffffffffff1681565b60025481565b60015481565b60405180608001604052806000815260200160608152602001600060ff168152602001600073ffffffffffffffffffffffffffffffffffffffff1681525090565b6000604051905090565b600080fd5b600080fd5b6000819050919050565b61043381610420565b811461043e57600080fd5b50565b6000813590506104508161042a565b92915050565b60006020828403121561046c5761046b610416565b5b600061047a84828501610441565b91505092915050565b61048c81610420565b82525050565b600081519050919050565b600082825260208201905092915050565b60005b838110156104cc5780820151818401526020810190506104b1565b60008484015250505050565b6000601f19601f8301169050919050565b60006104f482610492565b6104fe818561049d565b935061050e8185602086016104ae565b610517816104d8565b840191505092915050565b600060ff82169050919050565b61053881610522565b82525050565b600073ffffffffffffffffffffffffffffffffffffffff82169050919050565b60006105698261053e565b9050919050565b6105798161055e565b82525050565b60006080830160008301516105976000860182610483565b50602083015184820360208601526105af82826104e9565b91505060408301516105c4604086018261052f565b5060608301516105d76060860182610570565b508091505092915050565b600060208201905081810360008301526105fc818461057f565b905092915050565b600080fd5b600080fd5b7f4e487b7100000000000000000000000000000000000000000000000000000000600052604160045260246000fd5b610646826104d8565b810181811067ffffffffffffffff821117156106655761066461060e565b5b80604052505050565b600061067861040c565b9050610684828261063d565b919050565b600067ffffffffffffffff8211156106a4576106a361060e565b5b6106ad826104d8565b9050602081019050919050565b82818337600083830152505050565b60006106dc6106d784610689565b61066e565b9050828152602081018484840111156106f8576106f7610609565b5b6107038482856106ba565b509392505050565b600082601f8301126107205761071f610604565b5b81356107308482602086016106c9565b91505092915050565b61074281610522565b811461074d57600080fd5b50565b60008135905061075f81610739565b92915050565b6000806040838503121561077c5761077b610416565b5b600083013567ffffffffffffffff81111561079a5761079961041b565b5b6107a68582860161070b565b92505060206107b785828601610750565b9150509250929050565b60006107cc8261053e565b9050919050565b6107dc816107c1565b82525050565b60006020820190506107f760008301846107d3565b92915050565b61080681610420565b82525050565b600060208201905061082160008301846107fd565b92915050565b7f4e487b7100000000000000000000000000000000000000000000000000000000600052601160045260246000fd5b600061086182610420565b915061086c83610420565b925082820190508082111561088457610883610827565b5b92915050565b7f4e487b7100000000000000000000000000000000000000000000000000000000600052602260045260246000fd5b600060028204905060018216806108d157607f821691505b6020821081036108e4576108e361088a565b5b50919050565b60006108f582610420565b91507fffffffffffffffffffffffffffffffffffffffffffffffffffffffffffffffff820361092757610926610827565b5b600182019050919050565b60008190508160005260206000209050919050565b60006020601f8301049050919050565b600082821b905092915050565b6000600883026109947fffffffffffffffffffffffffffffffffffffffffffffffffffffffffffffffff82610957565b61099e8683610957565b95508019841693508086168417925050509392505050565b6000819050919050565b60006109db6109d66109d184610420565b6109b6565b610420565b9050919050565b6000819050919050565b6109f5836109c0565b610a09610a01826109e2565b848454610964565b825550505050565b600090565b610a1e610a11565b610a298184846109ec565b505050565b5b81811015610a4d57610a42600082610a16565b600181019050610a2f565b5050565b601f821115610a9257610a6381610932565b610a6c84610947565b81016020851015610a7b578190505b610a8f610a8785610947565b830182610a2e565b50505b505050565b600082821c905092915050565b6000610ab560001984600802610a97565b1980831691505092915050565b6000610ace8383610aa4565b9150826002028217905092915050565b610ae782610492565b67ffffffffffffffff811115610b0057610aff61060e565b5b610b0a82546108b9565b610b15828285610a51565b600060209050601f831160018114610b485760008415610b36578287015190505b610b408582610ac2565b865550610ba8565b601f198416610b5686610932565b60005b82811015610b7e57848901518255600182019150602085019450602081019050610b59565b86831015610b9b5784890151610b97601f891682610aa4565b8355505b6001600288020188555050505b50505050505056fea26469706673582212205cb1b7e5602bdd0151815bf7bf87b26f7d972e217164775ac8edae0700c1866e64736f6c63430008120033",
  "devdoc": {
    "kind": "dev",
    "methods": {},
    "version": 1
  },
  "userdoc": {
    "kind": "user",
    "methods": {},
    "version": 1
  },
  "storageLayout": {
    "storage": [
      {
        "astId": 3,
        "contract": "contracts/test.sol:test",
        "label": "owner",
        "offset": 0,
        "slot": "0",
        "type": "t_address"
      },
      {
        "astId": 5,
        "contract": "contracts/test.sol:test",
        "label": "i_initialSupply",
        "offset": 0,
        "slot": "1",
        "type": "t_uint256"
      },
      {
        "astId": 7,
        "contract": "contracts/test.sol:test",
        "label": "balance",
        "offset": 0,
        "slot": "2",
        "type": "t_uint256"
      },
      {
        "astId": 9,
        "contract": "contracts/test.sol:test",
        "label": "population",
        "offset": 0,
        "slot": "3",
        "type": "t_uint256"
      },
      {
        "astId": 14,
        "contract": "contracts/test.sol:test",
        "label": "people",
        "offset": 0,
        "slot": "4",
        "type": "t_mapping(t_uint256,t_struct(Person)23_storage)"
      }
    ],
    "types": {
      "t_address": {
        "encoding": "inplace",
        "label": "address",
        "numberOfBytes": "20"
      },
      "t_address_payable": {
        "encoding": "inplace",
        "label": "address payable",
        "numberOfBytes": "20"
      },
      "t_mapping(t_uint256,t_struct(Person)23_storage)": {
        "encoding": "mapping",
        "key": "t_uint256",
        "label": "mapping(uint256 => struct test.Person)",
        "numberOfBytes": "32",
        "value": "t_struct(Person)23_storage"
      },
      "t_string_storage": {
        "encoding": "bytes",
        "label": "string",
        "numberOfBytes": "32"
      },
      "t_struct(Person)23_storage": {
        "encoding": "inplace",
        "label": "struct test.Person",
        "members": [
          {
            "astId": 16,
            "contract": "contracts/test.sol:test",
            "label": "_id",
            "offset": 0,
            "slot": "0",
            "type": "t_uint256"
          },
          {
            "astId": 18,
            "contract": "contracts/test.sol:test",
            "label": "_name",
            "offset": 0,
            "slot": "1",
            "type": "t_string_storage"
          },
          {
            "astId": 20,
            "contract": "contracts/test.sol:test",
            "label": "_age",
            "offset": 0,
            "slot": "2",
            "type": "t_uint8"
          },
          {
            "astId": 22,
            "contract": "contracts/test.sol:test",
            "label": "_wallet",
            "offset": 1,
            "slot": "2",
            "type": "t_address_payable"
          }
        ],
        "numberOfBytes": "96"
      },
      "t_uint256": {
        "encoding": "inplace",
        "label": "uint256",
        "numberOfBytes": "32"
      },
      "t_uint8": {
        "encoding": "inplace",
        "label": "uint8",
        "numberOfBytes": "1"
      }
    }
  }
}